{
  "contractName": "SmartZakat",
  "abi": [
    {
      "constant": true,
      "inputs": [
        {
          "name": "",
          "type": "address"
        }
      ],
      "name": "ListAgency",
      "outputs": [
        {
          "name": "AgencyName",
          "type": "string"
        },
        {
          "name": "Agency_address",
          "type": "address"
        },
        {
          "name": "AgencyCode",
          "type": "uint256"
        }
      ],
      "payable": false,
      "stateMutability": "view",
      "type": "function"
    },
    {
      "constant": true,
      "inputs": [
        {
          "name": "",
          "type": "uint256"
        }
      ],
      "name": "user",
      "outputs": [
        {
          "name": "UniqueID",
          "type": "string"
        },
        {
          "name": "IC",
          "type": "uint256"
        },
        {
          "name": "name",
          "type": "string"
        },
        {
          "name": "AgencyAddress",
          "type": "address"
        },
        {
          "name": "AgencyName",
          "type": "string"
        },
        {
          "name": "countFundReceived",
          "type": "uint256"
        }
      ],
      "payable": false,
      "stateMutability": "view",
      "type": "function"
    },
    {
      "constant": true,
      "inputs": [
        {
          "name": "",
          "type": "uint256"
        },
        {
          "name": "",
          "type": "uint256"
        }
      ],
      "name": "UserFund",
      "outputs": [
        {
          "name": "sender",
          "type": "address"
        },
        {
          "name": "Agency",
          "type": "string"
        },
        {
          "name": "value",
          "type": "uint256"
        },
        {
          "name": "date",
          "type": "string"
        }
      ],
      "payable": false,
      "stateMutability": "view",
      "type": "function"
    },
    {
      "constant": true,
      "inputs": [],
      "name": "owner",
      "outputs": [
        {
          "name": "",
          "type": "address"
        }
      ],
      "payable": false,
      "stateMutability": "view",
      "type": "function"
    },
    {
      "inputs": [],
      "payable": false,
      "stateMutability": "nonpayable",
      "type": "constructor"
    },
    {
      "anonymous": false,
      "inputs": [
        {
          "indexed": false,
          "name": "_IC",
          "type": "uint256"
        },
        {
          "indexed": false,
          "name": "Name",
          "type": "string"
        },
        {
          "indexed": false,
          "name": "_Owner",
          "type": "address"
        },
        {
          "indexed": false,
          "name": "AgencyName",
          "type": "string"
        }
      ],
      "name": "UserAdded",
      "type": "event"
    },
    {
      "anonymous": false,
      "inputs": [
        {
          "indexed": false,
          "name": "Recipient",
          "type": "uint256"
        },
        {
          "indexed": false,
          "name": "From",
          "type": "address"
        },
        {
          "indexed": false,
          "name": "Amount",
          "type": "uint256"
        },
        {
          "indexed": false,
          "name": "Date",
          "type": "string"
        }
      ],
      "name": "transferFundEvent",
      "type": "event"
    },
    {
      "anonymous": false,
      "inputs": [
        {
          "indexed": false,
          "name": "_IC",
          "type": "uint256"
        },
        {
          "indexed": false,
          "name": "Name",
          "type": "string"
        },
        {
          "indexed": false,
          "name": "_Owner",
          "type": "address"
        },
        {
          "indexed": false,
          "name": "AgencyName",
          "type": "string"
        }
      ],
      "name": "addUserEvent",
      "type": "event"
    },
    {
      "anonymous": false,
      "inputs": [
        {
          "indexed": false,
          "name": "Name",
          "type": "string"
        },
        {
          "indexed": false,
          "name": "Address",
          "type": "address"
        }
      ],
      "name": "addAgencyEvent",
      "type": "event"
    },
    {
      "constant": false,
      "inputs": [
        {
          "name": "_AgencyName",
          "type": "string"
        },
        {
          "name": "new_Agency",
          "type": "address"
        }
      ],
      "name": "AddAgency",
      "outputs": [],
      "payable": false,
      "stateMutability": "nonpayable",
      "type": "function"
    },
    {
      "constant": true,
      "inputs": [
        {
          "name": "_agencyAddress",
          "type": "address"
        }
      ],
      "name": "getAgency",
      "outputs": [
        {
          "name": "_AgencyName",
          "type": "string"
        },
        {
          "name": "_Agency_address",
          "type": "address"
        },
        {
          "name": "_AgencyCode",
          "type": "uint256"
        }
      ],
      "payable": false,
      "stateMutability": "view",
      "type": "function"
    },
    {
      "constant": true,
      "inputs": [
        {
          "name": "agencyAddress",
          "type": "address"
        }
      ],
      "name": "verificationAgency",
      "outputs": [
        {
          "name": "_verify",
          "type": "bool"
        }
      ],
      "payable": false,
      "stateMutability": "view",
      "type": "function"
    },
    {
      "constant": false,
      "inputs": [
        {
          "name": "_IC",
          "type": "uint256"
        },
        {
          "name": "_name",
          "type": "string"
        }
      ],
      "name": "AddUser",
      "outputs": [],
      "payable": false,
      "stateMutability": "nonpayable",
      "type": "function"
    },
    {
      "constant": true,
      "inputs": [
        {
          "name": "_IC",
          "type": "uint256"
        }
      ],
      "name": "getUserDetails",
      "outputs": [
        {
          "name": "_agencyAddress",
          "type": "address"
        },
        {
          "name": "_AgencyName",
          "type": "string"
        },
        {
          "name": "_Name",
          "type": "string"
        }
      ],
      "payable": false,
      "stateMutability": "view",
      "type": "function"
    },
    {
      "constant": true,
      "inputs": [
        {
          "name": "_IC",
          "type": "uint256"
        },
        {
          "name": "index",
          "type": "uint256"
        }
      ],
      "name": "getFund",
      "outputs": [
        {
          "name": "sender",
          "type": "address"
        },
        {
          "name": "AgencyName",
          "type": "string"
        },
        {
          "name": "value",
          "type": "uint256"
        },
        {
          "name": "date",
          "type": "string"
        }
      ],
      "payable": false,
      "stateMutability": "view",
      "type": "function"
    },
    {
      "constant": true,
      "inputs": [
        {
          "name": "_IC",
          "type": "uint256"
        }
      ],
      "name": "verify",
      "outputs": [
        {
          "name": "_verify",
          "type": "bool"
        }
      ],
      "payable": false,
      "stateMutability": "view",
      "type": "function"
    },
    {
      "constant": false,
      "inputs": [
        {
          "name": "_IC",
          "type": "uint256"
        },
        {
          "name": "_sender",
          "type": "address"
        },
        {
          "name": "_value",
          "type": "uint256"
        },
        {
          "name": "_date",
          "type": "string"
        }
      ],
      "name": "transFund",
      "outputs": [],
      "payable": false,
      "stateMutability": "nonpayable",
      "type": "function"
    }
  ],
  "bytecode": "0x6080604052600060015534801561001557600080fd5b50336000806101000a81548173ffffffffffffffffffffffffffffffffffffffff021916908373ffffffffffffffffffffffffffffffffffffffff1602179055506121cf806100656000396000f3006080604052600436106100ba576000357c0100000000000000000000000000000000000000000000000000000000900463ffffffff16806303060818146100bf5780631c1a9f7b146102155780632dc8c5fb1461035a5780634d468327146104505780634e8c5042146104c3578063553275be146105b957806375774d7d146107785780638753367f146108ce57806388986e37146109135780638da5cb5b1461096e578063b05df2fc146109c5578063d2db539a14610a62575b600080fd5b3480156100cb57600080fd5b506100f46004803603810190808035906020019092919080359060200190929190505050610aeb565b604051808573ffffffffffffffffffffffffffffffffffffffff1673ffffffffffffffffffffffffffffffffffffffff1681526020018060200184815260200180602001838103835286818151815260200191508051906020019080838360005b83811015610170578082015181840152602081019050610155565b50505050905090810190601f16801561019d5780820380516001836020036101000a031916815260200191505b50838103825284818151815260200191508051906020019080838360005b838110156101d65780820151818401526020810190506101bb565b50505050905090810190601f1680156102035780820380516001836020036101000a031916815260200191505b50965050505050505060405180910390f35b34801561022157600080fd5b5061024060048036038101908080359060200190929190505050610cf4565b604051808473ffffffffffffffffffffffffffffffffffffffff1673ffffffffffffffffffffffffffffffffffffffff1681526020018060200180602001838103835285818151815260200191508051906020019080838360005b838110156102b657808201518184015260208101905061029b565b50505050905090810190601f1680156102e35780820380516001836020036101000a031916815260200191505b50838103825284818151815260200191508051906020019080838360005b8381101561031c578082015181840152602081019050610301565b50505050905090810190601f1680156103495780820380516001836020036101000a031916815260200191505b509550505050505060405180910390f35b34801561036657600080fd5b5061039b600480360381019080803573ffffffffffffffffffffffffffffffffffffffff169060200190929190505050610f65565b60405180806020018473ffffffffffffffffffffffffffffffffffffffff1673ffffffffffffffffffffffffffffffffffffffff168152602001838152602001828103825285818151815260200191508051906020019080838360005b838110156104135780820151818401526020810190506103f8565b50505050905090810190601f1680156104405780820380516001836020036101000a031916815260200191505b5094505050505060405180910390f35b34801561045c57600080fd5b506104c160048036038101908080359060200190929190803590602001908201803590602001908080601f0160208091040260200160405190810160405280939291908181526020018383808284378201915050505050509192919290505050611153565b005b3480156104cf57600080fd5b50610504600480360381019080803573ffffffffffffffffffffffffffffffffffffffff16906020019092919050505061151a565b60405180806020018473ffffffffffffffffffffffffffffffffffffffff1673ffffffffffffffffffffffffffffffffffffffff168152602001838152602001828103825285818151815260200191508051906020019080838360005b8381101561057c578082015181840152602081019050610561565b50505050905090810190601f1680156105a95780820380516001836020036101000a031916815260200191505b5094505050505060405180910390f35b3480156105c557600080fd5b506105e4600480360381019080803590602001909291905050506115fc565b6040518080602001878152602001806020018673ffffffffffffffffffffffffffffffffffffffff1673ffffffffffffffffffffffffffffffffffffffff1681526020018060200185815260200184810384528a818151815260200191508051906020019080838360005b8381101561066a57808201518184015260208101905061064f565b50505050905090810190601f1680156106975780820380516001836020036101000a031916815260200191505b50848103835288818151815260200191508051906020019080838360005b838110156106d05780820151818401526020810190506106b5565b50505050905090810190601f1680156106fd5780820380516001836020036101000a031916815260200191505b50848103825286818151815260200191508051906020019080838360005b8381101561073657808201518184015260208101905061071b565b50505050905090810190601f1680156107635780820380516001836020036101000a031916815260200191505b50995050505050505050505060405180910390f35b34801561078457600080fd5b506107ad6004803603810190808035906020019092919080359060200190929190505050611820565b604051808573ffffffffffffffffffffffffffffffffffffffff1673ffffffffffffffffffffffffffffffffffffffff1681526020018060200184815260200180602001838103835286818151815260200191508051906020019080838360005b8381101561082957808201518184015260208101905061080e565b50505050905090810190601f1680156108565780820380516001836020036101000a031916815260200191505b50838103825284818151815260200191508051906020019080838360005b8381101561088f578082015181840152602081019050610874565b50505050905090810190601f1680156108bc5780820380516001836020036101000a031916815260200191505b50965050505050505060405180910390f35b3480156108da57600080fd5b506108f9600480360381019080803590602001909291905050506119ad565b604051808215151515815260200191505060405180910390f35b34801561091f57600080fd5b50610954600480360381019080803573ffffffffffffffffffffffffffffffffffffffff1690602001909291905050506119e1565b604051808215151515815260200191505060405180910390f35b34801561097a57600080fd5b50610983611a77565b604051808273ffffffffffffffffffffffffffffffffffffffff1673ffffffffffffffffffffffffffffffffffffffff16815260200191505060405180910390f35b3480156109d157600080fd5b50610a6060048036038101908080359060200190929190803573ffffffffffffffffffffffffffffffffffffffff16906020019092919080359060200190929190803590602001908201803590602001908080601f0160208091040260200160405190810160405280939291908181526020018383808284378201915050505050509192919290505050611a9c565b005b348015610a6e57600080fd5b50610ae9600480360381019080803590602001908201803590602001908080601f0160208091040260200160405190810160405280939291908181526020018383808284378201915050505050509192919290803573ffffffffffffffffffffffffffffffffffffffff169060200190929190505050611e1b565b005b600060606000606060046000878152602001908152602001600020600086815260200190815260200160002060000160009054906101000a900473ffffffffffffffffffffffffffffffffffffffff1693506004600087815260200190815260200160002060008681526020019081526020016000206001018054600181600116156101000203166002900480601f016020809104026020016040519081016040528092919081815260200182805460018160011615610100020316600290048015610bf85780601f10610bcd57610100808354040283529160200191610bf8565b820191906000526020600020905b815481529060010190602001808311610bdb57829003601f168201915b505050505092506004600087815260200190815260200160002060008681526020019081526020016000206002015491506004600087815260200190815260200160002060008681526020019081526020016000206003018054600181600116156101000203166002900480601f016020809104026020016040519081016040528092919081815260200182805460018160011615610100020316600290048015610ce45780601f10610cb957610100808354040283529160200191610ce4565b820191906000526020600020905b815481529060010190602001808311610cc757829003601f168201915b5050505050905092959194509250565b6000606080333373ffffffffffffffffffffffffffffffffffffffff16600360008373ffffffffffffffffffffffffffffffffffffffff1673ffffffffffffffffffffffffffffffffffffffff16815260200190815260200160002060010160009054906101000a900473ffffffffffffffffffffffffffffffffffffffff1673ffffffffffffffffffffffffffffffffffffffff16141515610d9657600080fd5b6002600086815260200190815260200160002060030160009054906101000a900473ffffffffffffffffffffffffffffffffffffffff169350600360008573ffffffffffffffffffffffffffffffffffffffff1673ffffffffffffffffffffffffffffffffffffffff1681526020019081526020016000206000018054600181600116156101000203166002900480601f016020809104026020016040519081016040528092919081815260200182805460018160011615610100020316600290048015610ea55780601f10610e7a57610100808354040283529160200191610ea5565b820191906000526020600020905b815481529060010190602001808311610e8857829003601f168201915b50505050509250600260008681526020019081526020016000206002018054600181600116156101000203166002900480601f016020809104026020016040519081016040528092919081815260200182805460018160011615610100020316600290048015610f565780601f10610f2b57610100808354040283529160200191610f56565b820191906000526020600020905b815481529060010190602001808311610f3957829003601f168201915b50505050509150509193909250565b60606000806000809054906101000a900473ffffffffffffffffffffffffffffffffffffffff1673ffffffffffffffffffffffffffffffffffffffff163373ffffffffffffffffffffffffffffffffffffffff16141515610fc557600080fd5b600360008573ffffffffffffffffffffffffffffffffffffffff1673ffffffffffffffffffffffffffffffffffffffff1681526020019081526020016000206000018054600181600116156101000203166002900480601f01602080910402602001604051908101604052809291908181526020018280546001816001161561010002031660029004801561109b5780601f106110705761010080835404028352916020019161109b565b820191906000526020600020905b81548152906001019060200180831161107e57829003601f168201915b50505050509250600360008573ffffffffffffffffffffffffffffffffffffffff1673ffffffffffffffffffffffffffffffffffffffff16815260200190815260200160002060010160009054906101000a900473ffffffffffffffffffffffffffffffffffffffff169150600360008573ffffffffffffffffffffffffffffffffffffffff1673ffffffffffffffffffffffffffffffffffffffff1681526020019081526020016000206002015490509193909250565b818060026000838152602001908152602001600020600101541415151561117957600080fd5b333373ffffffffffffffffffffffffffffffffffffffff16600360008373ffffffffffffffffffffffffffffffffffffffff1673ffffffffffffffffffffffffffffffffffffffff16815260200190815260200160002060010160009054906101000a900473ffffffffffffffffffffffffffffffffffffffff1673ffffffffffffffffffffffffffffffffffffffff1614151561121657600080fd5b836002600086815260200190815260200160002060010181905550336002600086815260200190815260200160002060030160006101000a81548173ffffffffffffffffffffffffffffffffffffffff021916908373ffffffffffffffffffffffffffffffffffffffff160217905550600360003373ffffffffffffffffffffffffffffffffffffffff1673ffffffffffffffffffffffffffffffffffffffff1681526020019081526020016000206000016002600086815260200190815260200160002060040190805460018160011615610100020316600290046112fd929190612077565b50826002600086815260200190815260200160002060020190805190602001906113289291906120fe565b507ffbafcb3636cf77fd3d51b16911ced5e59735edf460836fc0f6d37af5cbbe656e60026000868152602001908152602001600020600101546002600087815260200190815260200160002060020133600360003373ffffffffffffffffffffffffffffffffffffffff1673ffffffffffffffffffffffffffffffffffffffff16815260200190815260200160002060000160405180858152602001806020018473ffffffffffffffffffffffffffffffffffffffff1673ffffffffffffffffffffffffffffffffffffffff1681526020018060200183810383528681815460018160011615610100020316600290048152602001915080546001816001161561010002031660029004801561147f5780601f106114545761010080835404028352916020019161147f565b820191906000526020600020905b81548152906001019060200180831161146257829003601f168201915b50508381038252848181546001816001161561010002031660029004815260200191508054600181600116156101000203166002900480156115025780601f106114d757610100808354040283529160200191611502565b820191906000526020600020905b8154815290600101906020018083116114e557829003601f168201915b5050965050505050505060405180910390a150505050565b6003602052806000526040600020600091509050806000018054600181600116156101000203166002900480601f0160208091040260200160405190810160405280929190818152602001828054600181600116156101000203166002900480156115c65780601f1061159b576101008083540402835291602001916115c6565b820191906000526020600020905b8154815290600101906020018083116115a957829003601f168201915b5050505050908060010160009054906101000a900473ffffffffffffffffffffffffffffffffffffffff16908060020154905083565b6002602052806000526040600020600091509050806000018054600181600116156101000203166002900480601f0160208091040260200160405190810160405280929190818152602001828054600181600116156101000203166002900480156116a85780601f1061167d576101008083540402835291602001916116a8565b820191906000526020600020905b81548152906001019060200180831161168b57829003601f168201915b505050505090806001015490806002018054600181600116156101000203166002900480601f01602080910402602001604051908101604052809291908181526020018280546001816001161561010002031660029004801561174c5780601f106117215761010080835404028352916020019161174c565b820191906000526020600020905b81548152906001019060200180831161172f57829003601f168201915b5050505050908060030160009054906101000a900473ffffffffffffffffffffffffffffffffffffffff1690806004018054600181600116156101000203166002900480601f0160208091040260200160405190810160405280929190818152602001828054600181600116156101000203166002900480156118105780601f106117e557610100808354040283529160200191611810565b820191906000526020600020905b8154815290600101906020018083116117f357829003601f168201915b5050505050908060050154905086565b6004602052816000526040600020602052806000526040600020600091509150508060000160009054906101000a900473ffffffffffffffffffffffffffffffffffffffff1690806001018054600181600116156101000203166002900480601f0160208091040260200160405190810160405280929190818152602001828054600181600116156101000203166002900480156118ff5780601f106118d4576101008083540402835291602001916118ff565b820191906000526020600020905b8154815290600101906020018083116118e257829003601f168201915b505050505090806002015490806003018054600181600116156101000203166002900480601f0160208091040260200160405190810160405280929190818152602001828054600181600116156101000203166002900480156119a35780601f10611978576101008083540402835291602001916119a3565b820191906000526020600020905b81548152906001019060200180831161198657829003601f168201915b5050505050905084565b60008060026000848152602001908152602001600020600101541415156119d757600190506119dc565b600090505b919050565b600080600360008473ffffffffffffffffffffffffffffffffffffffff1673ffffffffffffffffffffffffffffffffffffffff16815260200190815260200160002060010160009054906101000a900473ffffffffffffffffffffffffffffffffffffffff1673ffffffffffffffffffffffffffffffffffffffff16141515611a6d5760019050611a72565b600090505b919050565b6000809054906101000a900473ffffffffffffffffffffffffffffffffffffffff1681565b6000333373ffffffffffffffffffffffffffffffffffffffff16600360008373ffffffffffffffffffffffffffffffffffffffff1673ffffffffffffffffffffffffffffffffffffffff16815260200190815260200160002060010160009054906101000a900473ffffffffffffffffffffffffffffffffffffffff1673ffffffffffffffffffffffffffffffffffffffff16141515611b3b57600080fd5b856000600260008381526020019081526020016000206001015414151515611b6257600080fd5b8573ffffffffffffffffffffffffffffffffffffffff163373ffffffffffffffffffffffffffffffffffffffff16141515611b9c57600080fd5b600260008881526020019081526020016000206005015492503360046000898152602001908152602001600020600085815260200190815260200160002060000160006101000a81548173ffffffffffffffffffffffffffffffffffffffff021916908373ffffffffffffffffffffffffffffffffffffffff160217905550600360003373ffffffffffffffffffffffffffffffffffffffff1673ffffffffffffffffffffffffffffffffffffffff1681526020019081526020016000206000016004600089815260200190815260200160002060008581526020019081526020016000206001019080546001816001161561010002031660029004611ca3929190612077565b508460046000898152602001908152602001600020600085815260200190815260200160002060020181905550836004600089815260200190815260200160002060008581526020019081526020016000206003019080519060200190611d0b9291906120fe565b5060026000888152602001908152602001600020600501600081548092919060010191905055507f4d912bd23a23b3ef59dec3bb9f2e54a3aec1b1a39adb89bf4ade1719b01cd4ea87338787604051808581526020018473ffffffffffffffffffffffffffffffffffffffff1673ffffffffffffffffffffffffffffffffffffffff16815260200183815260200180602001828103825283818151815260200191508051906020019080838360005b83811015611dd5578082015181840152602081019050611dba565b50505050905090810190601f168015611e025780820380516001836020036101000a031916815260200191505b509550505050505060405180910390a150505050505050565b6000809054906101000a900473ffffffffffffffffffffffffffffffffffffffff1673ffffffffffffffffffffffffffffffffffffffff163373ffffffffffffffffffffffffffffffffffffffff16141515611e7657600080fd5b80600360008373ffffffffffffffffffffffffffffffffffffffff1673ffffffffffffffffffffffffffffffffffffffff16815260200190815260200160002060010160006101000a81548173ffffffffffffffffffffffffffffffffffffffff021916908373ffffffffffffffffffffffffffffffffffffffff16021790555081600360008373ffffffffffffffffffffffffffffffffffffffff1673ffffffffffffffffffffffffffffffffffffffff1681526020019081526020016000206000019080519060200190611f4d9291906120fe565b50600160008154600101919050819055600360008373ffffffffffffffffffffffffffffffffffffffff1673ffffffffffffffffffffffffffffffffffffffff168152602001908152602001600020600201819055507f04b2856a8d5b49bf0fa562491d66a4ac27825b51e9dbd65ffa539838ed6aff8d828260405180806020018373ffffffffffffffffffffffffffffffffffffffff1673ffffffffffffffffffffffffffffffffffffffff168152602001828103825284818151815260200191508051906020019080838360005b8381101561203857808201518184015260208101905061201d565b50505050905090810190601f1680156120655780820380516001836020036101000a031916815260200191505b50935050505060405180910390a15050565b828054600181600116156101000203166002900490600052602060002090601f016020900481019282601f106120b057805485556120ed565b828001600101855582156120ed57600052602060002091601f016020900482015b828111156120ec5782548255916001019190600101906120d1565b5b5090506120fa919061217e565b5090565b828054600181600116156101000203166002900490600052602060002090601f016020900481019282601f1061213f57805160ff191683800117855561216d565b8280016001018555821561216d579182015b8281111561216c578251825591602001919060010190612151565b5b50905061217a919061217e565b5090565b6121a091905b8082111561219c576000816000905550600101612184565b5090565b905600a165627a7a72305820197bac35fa31e3264ea5f62ecd291216bd2d8c0237ecdef39b423f9279d264fc0029",
  "source": "pragma solidity ^0.4.24;\r\n\r\ncontract SmartZakat{\r\n\r\n    //list of details on a fund send to a user\r\n    struct Fund{\r\n        address sender;\r\n        string Agency;\r\n        uint value;\r\n        string date;\r\n    }\r\n\r\n    //Agency Details\r\n    struct Agency{\r\n            string AgencyName;\r\n            address Agency_address;\r\n            uint AgencyCode;\r\n    }\r\n\r\n    //list of variables for user\r\n    struct userDetails{\r\n\r\n        string UniqueID;\r\n        uint IC;\r\n        string name;\r\n        address AgencyAddress;\r\n        string AgencyName;\r\n        uint countFundReceived;\r\n\r\n        //mapping every fund receive\r\n        // mapping(address => UserFund) receivedFund;\r\n\r\n    }\r\n\r\n        event UserAdded(uint _IC, string Name, address _Owner, string AgencyName );\r\n        event transferFundEvent (uint Recipient, address From, uint Amount, string Date);\r\n        event addUserEvent(uint _IC, string Name, address _Owner, string AgencyName );\r\n        event addAgencyEvent(string Name, address Address);\r\n\r\n\r\n\r\n    //Address of owner\r\n    address public owner;\r\n    uint AgencyCode = 0;\r\n\r\n    constructor() public {\r\n        owner = msg.sender;\r\n    }\r\n\r\n    //map the UniqueID with the userDetails\r\n    mapping(uint => userDetails) public user;\r\n\r\n    //mapping address to agency details\r\n    mapping(address => Agency) public ListAgency;\r\n    //mapping ic with every Fund.\r\n    //first uint is IC, second uint is fund counter\r\n    mapping(uint => mapping(uint => Fund)) public UserFund;\r\n    // mapping(uint => Fund) public UserFund;\r\n\r\n\r\n\r\n    //Add Authority which they can add people\r\n    function AddAgency(string _AgencyName, address new_Agency) public isOwner {\r\n        ListAgency[new_Agency].Agency_address = new_Agency;\r\n        ListAgency[new_Agency].AgencyName = _AgencyName;\r\n        ListAgency[new_Agency].AgencyCode = ++AgencyCode;\r\n\r\n        emit addAgencyEvent(_AgencyName, new_Agency);\r\n\r\n    }\r\n\r\n    function getAgency(address _agencyAddress) isOwner public view returns  (\r\n        string _AgencyName,\r\n        address _Agency_address,\r\n        uint _AgencyCode\r\n        ){\r\n\r\n         _AgencyName = ListAgency[_agencyAddress].AgencyName;\r\n         _Agency_address = ListAgency[_agencyAddress].Agency_address;\r\n         _AgencyCode = ListAgency[_agencyAddress].AgencyCode;\r\n\r\n\r\n\r\n    }\r\n\r\n     function verificationAgency(address agencyAddress) public view returns (bool _verify){\r\n      if(ListAgency[agencyAddress].Agency_address != 0x0){\r\n        _verify =  true;\r\n      }else{\r\n        _verify = false;\r\n      }\r\n\r\n    }\r\n\r\n    //Add userDetails\r\n    //only Agency can add user, owner cannot add\r\n    function AddUser(\r\n\r\n        uint _IC,\r\n        string _name\r\n\r\n        ) public isUserNotExist(_IC)  isAgency(msg.sender) {\r\n\r\n        user[_IC].IC = _IC;\r\n        user[_IC].AgencyAddress = msg.sender;\r\n        user[_IC].AgencyName = ListAgency[msg.sender].AgencyName;\r\n        user[_IC].name = _name;\r\n\r\n        emit UserAdded(user[_IC].IC, user[_IC].name, msg.sender, ListAgency[msg.sender].AgencyName);\r\n\r\n    }\r\n\r\n    //return every single details that are map on them\r\n    //only Authority agency can call this function\r\n    function getUserDetails(uint _IC) isAgency(msg.sender) public view returns (\r\n\r\n        address _agencyAddress,\r\n        string _AgencyName,\r\n        string _Name\r\n        ){\r\n\r\n        _agencyAddress = user[_IC].AgencyAddress;\r\n        _AgencyName = ListAgency[_agencyAddress].AgencyName;\r\n        _Name = user[_IC].name;\r\n\r\n\r\n    }\r\n\r\n    function getFund(uint _IC, uint index) public view returns(\r\n      address sender,\r\n      string AgencyName,\r\n      uint value,\r\n      string date\r\n    ){\r\n        sender = UserFund[_IC][index].sender;\r\n        AgencyName = UserFund[_IC][index].Agency;\r\n        value = UserFund[_IC][index].value;\r\n        date = UserFund[_IC][index].date;\r\n    }\r\n\r\n    function verify(uint _IC) public view returns (bool _verify){\r\n        if(user[_IC].IC != 0){\r\n            return true;\r\n        }else {\r\n            return false;\r\n        }\r\n    }\r\n\r\n    //Only Agency can setFund, which is the fund from the agency itself\r\n    //Only Agency can setFund, which is the fund from the agency itself\r\n    function transFund(\r\n        uint _IC,\r\n        address _sender,\r\n        uint _value,\r\n        string _date\r\n        ) isAgency(msg.sender) isUserExist(_IC)  public {\r\n\r\n        //check the sender and the one that call the function is the same person\r\n        require(msg.sender == _sender);\r\n\r\n        uint count = user[_IC].countFundReceived;\r\n\r\n        UserFund[_IC][count].sender = msg.sender;\r\n        UserFund[_IC][count].Agency = ListAgency[msg.sender].AgencyName;\r\n        UserFund[_IC][count].value = _value;\r\n        UserFund[_IC][count].date = _date;\r\n\r\n        user[_IC].countFundReceived++;\r\n\r\n        emit transferFundEvent(_IC, msg.sender, _value, _date);\r\n\r\n    }\r\n\r\n    // function getListAgency() public;\r\n    // function getAllUserDetail() public;\r\n\r\n\r\n    //Verify the the one that call the function is the owner\r\n    modifier isOwner(){\r\n        require(msg.sender == owner);\r\n        _;\r\n    }\r\n\r\n    //Verify the the one that call the\r\n    //function is one of the agency\r\n    modifier isAgency(address agency_address){\r\n        require(ListAgency[agency_address].Agency_address == msg.sender);\r\n        _;\r\n    }\r\n\r\n    //To make sure the user is exist\r\n    modifier isUserExist(uint _IC){\r\n        require(user[_IC].IC != 0);\r\n        _;\r\n    }\r\n\r\n    modifier isUserNotExist(uint _IC){\r\n        require(user[_IC].IC != _IC );\r\n        _;\r\n    }\r\n\r\n\r\n\r\n}\r\n",
  "sourcePath": "C:\\Users\\SAM\\OneDrive\\FSKTM\\MAMPU Datathon\\Smart_Zakat\\contracts\\SmartZakat.sol",
  "compiler": {
    "name": "solc",
    "version": "0.4.24+commit.e67f0147.Emscripten.clang"
  },
  "schemaVersion": "2.0.1",
  "updatedAt": "2018-09-23T21:22:53.343Z"
}