{
  "contractName": "ApprovalContract",
  "abi": [
    {
      "constant": true,
      "inputs": [],
      "name": "approver",
      "outputs": [
        {
          "name": "",
          "type": "address"
        }
      ],
      "payable": false,
      "stateMutability": "view",
      "type": "function"
    },
    {
      "constant": true,
      "inputs": [],
      "name": "sender",
      "outputs": [
        {
          "name": "",
          "type": "address"
        }
      ],
      "payable": false,
      "stateMutability": "view",
      "type": "function"
    },
    {
      "constant": true,
      "inputs": [],
      "name": "receiver",
      "outputs": [
        {
          "name": "",
          "type": "address"
        }
      ],
      "payable": false,
      "stateMutability": "view",
      "type": "function"
    },
    {
      "inputs": [],
      "payable": false,
      "stateMutability": "nonpayable",
      "type": "constructor"
    },
    {
      "constant": false,
      "inputs": [
        {
          "name": "_receiver",
          "type": "address"
        }
      ],
      "name": "deposit",
      "outputs": [],
      "payable": true,
      "stateMutability": "payable",
      "type": "function"
    },
    {
      "constant": true,
      "inputs": [],
      "name": "viewApprover",
      "outputs": [
        {
          "name": "",
          "type": "address"
        }
      ],
      "payable": false,
      "stateMutability": "pure",
      "type": "function"
    },
    {
      "constant": false,
      "inputs": [],
      "name": "approve",
      "outputs": [],
      "payable": true,
      "stateMutability": "payable",
      "type": "function"
    }
  ],
  "bytecode": "0x608060405234801561001057600080fd5b50610427806100206000396000f300608060405260043610610078576000357c0100000000000000000000000000000000000000000000000000000000900463ffffffff16806312424e3f1461007d578063141a8dd81461008757806367e404ce146100de578063d93ce89c14610135578063f340fa011461018c578063f7260d3e146101c2575b600080fd5b610085610219565b005b34801561009357600080fd5b5061009c6102e9565b604051808273ffffffffffffffffffffffffffffffffffffffff1673ffffffffffffffffffffffffffffffffffffffff16815260200191505060405180910390f35b3480156100ea57600080fd5b506100f3610301565b604051808273ffffffffffffffffffffffffffffffffffffffff1673ffffffffffffffffffffffffffffffffffffffff16815260200191505060405180910390f35b34801561014157600080fd5b5061014a610326565b604051808273ffffffffffffffffffffffffffffffffffffffff1673ffffffffffffffffffffffffffffffffffffffff16815260200191505060405180910390f35b6101c0600480360381019080803573ffffffffffffffffffffffffffffffffffffffff169060200190929190505050610342565b005b3480156101ce57600080fd5b506101d76103d5565b604051808273ffffffffffffffffffffffffffffffffffffffff1673ffffffffffffffffffffffffffffffffffffffff16815260200191505060405180910390f35b734fb38e2bb044ea2556f00dc4dc8361565f57d4c873ffffffffffffffffffffffffffffffffffffffff163373ffffffffffffffffffffffffffffffffffffffff1614151561026757600080fd5b600160009054906101000a900473ffffffffffffffffffffffffffffffffffffffff1673ffffffffffffffffffffffffffffffffffffffff166108fc3073ffffffffffffffffffffffffffffffffffffffff16319081150290604051600060405180830381858888f193505050501580156102e6573d6000803e3d6000fd5b50565b734fb38e2bb044ea2556f00dc4dc8361565f57d4c881565b6000809054906101000a900473ffffffffffffffffffffffffffffffffffffffff1681565b6000734fb38e2bb044ea2556f00dc4dc8361565f57d4c8905090565b60003411151561035157600080fd5b336000806101000a81548173ffffffffffffffffffffffffffffffffffffffff021916908373ffffffffffffffffffffffffffffffffffffffff16021790555080600160006101000a81548173ffffffffffffffffffffffffffffffffffffffff021916908373ffffffffffffffffffffffffffffffffffffffff16021790555050565b600160009054906101000a900473ffffffffffffffffffffffffffffffffffffffff16815600a165627a7a72305820f10620213310999a9ff49db5f89618b5fcfe1ba47bddb90442244add05ff90dd0029",
  "source": "pragma solidity ^0.4.24;\n\ncontract ApprovalContract {\n\n  address public sender;\n  address public receiver;\n  //we can do something here like hardcode and approver addreesss\n  //this would be like escrow agent address\n  address constant public approver = 0x4fB38e2bb044Ea2556f00Dc4DC8361565f57D4c8 ;\n\n  constructor() public{\n    // tbd\n    // we could set approver here\n    //for example with have a comjpany with many agents\n  }\n\n  function deposit(address _receiver) external payable {\n    require(msg.value > 0);\n    sender = msg.sender;\n    receiver = _receiver;\n  }\n\n  function viewApprover() external pure returns(address) {\n    return(approver);\n  }\n\n  function approve() payable external {\n    require(msg.sender == approver);\n    receiver.transfer(address(this).balance);\n  }\n\n}\n",
  "sourcePath": "C:\\Users\\SAM\\OneDrive\\FSKTM\\BlockVisor Inmagine Blockchain Workshop\\Escrow-project-example-master\\contracts\\ApprovalContract.sol",
  "compiler": {
    "name": "solc",
    "version": "0.4.24+commit.e67f0147.Emscripten.clang"
  },
  "schemaVersion": "2.0.1",
  "updatedAt": "2018-09-14T03:07:32.220Z"
}