{
  "contractName": "StudentCert",
  "abi": [
    {
      "constant": true,
      "inputs": [
        {
          "name": "",
          "type": "uint256"
        }
      ],
      "name": "exist",
      "outputs": [
        {
          "name": "",
          "type": "bool"
        }
      ],
      "payable": false,
      "stateMutability": "view",
      "type": "function"
    },
    {
      "constant": true,
      "inputs": [
        {
          "name": "",
          "type": "uint256"
        }
      ],
      "name": "Student",
      "outputs": [
        {
          "name": "name",
          "type": "string"
        },
        {
          "name": "course",
          "type": "string"
        },
        {
          "name": "matric_num",
          "type": "string"
        },
        {
          "name": "dob",
          "type": "string"
        },
        {
          "name": "graddate",
          "type": "string"
        },
        {
          "name": "gpa",
          "type": "int256"
        }
      ],
      "payable": false,
      "stateMutability": "view",
      "type": "function"
    },
    {
      "constant": true,
      "inputs": [],
      "name": "studentsCount",
      "outputs": [
        {
          "name": "",
          "type": "uint256"
        }
      ],
      "payable": false,
      "stateMutability": "view",
      "type": "function"
    },
    {
      "constant": true,
      "inputs": [
        {
          "name": "",
          "type": "address"
        }
      ],
      "name": "UniversityAdmin",
      "outputs": [
        {
          "name": "",
          "type": "bool"
        }
      ],
      "payable": false,
      "stateMutability": "view",
      "type": "function"
    },
    {
      "constant": true,
      "inputs": [],
      "name": "ic",
      "outputs": [
        {
          "name": "",
          "type": "uint256"
        }
      ],
      "payable": false,
      "stateMutability": "view",
      "type": "function"
    },
    {
      "inputs": [],
      "payable": false,
      "stateMutability": "nonpayable",
      "type": "constructor"
    },
    {
      "anonymous": false,
      "inputs": [
        {
          "indexed": false,
          "name": "ic",
          "type": "uint256"
        },
        {
          "indexed": false,
          "name": "name",
          "type": "string"
        },
        {
          "indexed": false,
          "name": "course",
          "type": "string"
        },
        {
          "indexed": false,
          "name": "matric_num",
          "type": "string"
        },
        {
          "indexed": false,
          "name": "dob",
          "type": "string"
        },
        {
          "indexed": false,
          "name": "gpa",
          "type": "int256"
        },
        {
          "indexed": false,
          "name": "graddate",
          "type": "string"
        }
      ],
      "name": "logAddedStudent",
      "type": "event"
    },
    {
      "constant": false,
      "inputs": [
        {
          "name": "_ic",
          "type": "uint256"
        }
      ],
      "name": "setIC",
      "outputs": [],
      "payable": false,
      "stateMutability": "nonpayable",
      "type": "function"
    },
    {
      "constant": false,
      "inputs": [
        {
          "name": "_ic",
          "type": "uint256"
        },
        {
          "name": "_name",
          "type": "string"
        },
        {
          "name": "_course",
          "type": "string"
        },
        {
          "name": "_matric_num",
          "type": "string"
        },
        {
          "name": "_dob",
          "type": "string"
        },
        {
          "name": "_gpa",
          "type": "int256"
        },
        {
          "name": "_graddate",
          "type": "string"
        }
      ],
      "name": "addStudent",
      "outputs": [],
      "payable": false,
      "stateMutability": "nonpayable",
      "type": "function"
    },
    {
      "constant": false,
      "inputs": [
        {
          "name": "_ic",
          "type": "uint256"
        }
      ],
      "name": "getDetails",
      "outputs": [
        {
          "name": "",
          "type": "string"
        },
        {
          "name": "",
          "type": "string"
        },
        {
          "name": "",
          "type": "string"
        },
        {
          "name": "",
          "type": "string"
        },
        {
          "name": "",
          "type": "int256"
        }
      ],
      "payable": false,
      "stateMutability": "nonpayable",
      "type": "function"
    },
    {
      "constant": false,
      "inputs": [
        {
          "name": "_ic",
          "type": "uint256"
        }
      ],
      "name": "getName",
      "outputs": [
        {
          "name": "",
          "type": "string"
        }
      ],
      "payable": false,
      "stateMutability": "nonpayable",
      "type": "function"
    },
    {
      "constant": false,
      "inputs": [
        {
          "name": "_address",
          "type": "address"
        }
      ],
      "name": "addUniAddress",
      "outputs": [],
      "payable": false,
      "stateMutability": "nonpayable",
      "type": "function"
    }
  ],
  "bytecode": "0x608060405234801561001057600080fd5b5033600560006101000a81548173ffffffffffffffffffffffffffffffffffffffff021916908373ffffffffffffffffffffffffffffffffffffffff16021790555061130f806100616000396000f3006080604052600436106100a4576000357c0100000000000000000000000000000000000000000000000000000000900463ffffffff1680634ebbc92a146100a957806365bbf54f146100ee57806368433a3a1461034b5780636b8ff5741461037657806396c3248d1461041c578063985bc33714610477578063a8d9da12146104a4578063af841c11146104cf578063b93a89f714610512578063bc54382f14610703575b600080fd5b3480156100b557600080fd5b506100d460048036038101908080359060200190929190505050610898565b604051808215151515815260200191505060405180910390f35b3480156100fa57600080fd5b50610119600480360381019080803590602001909291905050506108b8565b60405180806020018060200180602001806020018060200187815260200186810386528c818151815260200191508051906020019080838360005b8381101561016f578082015181840152602081019050610154565b50505050905090810190601f16801561019c5780820380516001836020036101000a031916815260200191505b5086810385528b818151815260200191508051906020019080838360005b838110156101d55780820151818401526020810190506101ba565b50505050905090810190601f1680156102025780820380516001836020036101000a031916815260200191505b5086810384528a818151815260200191508051906020019080838360005b8381101561023b578082015181840152602081019050610220565b50505050905090810190601f1680156102685780820380516001836020036101000a031916815260200191505b50868103835289818151815260200191508051906020019080838360005b838110156102a1578082015181840152602081019050610286565b50505050905090810190601f1680156102ce5780820380516001836020036101000a031916815260200191505b50868103825288818151815260200191508051906020019080838360005b838110156103075780820151818401526020810190506102ec565b50505050905090810190601f1680156103345780820380516001836020036101000a031916815260200191505b509b50505050505050505050505060405180910390f35b34801561035757600080fd5b50610360610bec565b6040518082815260200191505060405180910390f35b34801561038257600080fd5b506103a160048036038101908080359060200190929190505050610bf2565b6040518080602001828103825283818151815260200191508051906020019080838360005b838110156103e15780820151818401526020810190506103c6565b50505050905090810190601f16801561040e5780820380516001836020036101000a031916815260200191505b509250505060405180910390f35b34801561042857600080fd5b5061045d600480360381019080803573ffffffffffffffffffffffffffffffffffffffff169060200190929190505050610ca9565b604051808215151515815260200191505060405180910390f35b34801561048357600080fd5b506104a260048036038101908080359060200190929190505050610cc9565b005b3480156104b057600080fd5b506104b9610cd3565b6040518082815260200191505060405180910390f35b3480156104db57600080fd5b50610510600480360381019080803573ffffffffffffffffffffffffffffffffffffffff169060200190929190505050610cd9565b005b34801561051e57600080fd5b5061053d60048036038101908080359060200190929190505050610d90565b604051808060200180602001806020018060200186815260200185810385528a818151815260200191508051906020019080838360005b8381101561058f578082015181840152602081019050610574565b50505050905090810190601f1680156105bc5780820380516001836020036101000a031916815260200191505b50858103845289818151815260200191508051906020019080838360005b838110156105f55780820151818401526020810190506105da565b50505050905090810190601f1680156106225780820380516001836020036101000a031916815260200191505b50858103835288818151815260200191508051906020019080838360005b8381101561065b578082015181840152602081019050610640565b50505050905090810190601f1680156106885780820380516001836020036101000a031916815260200191505b50858103825287818151815260200191508051906020019080838360005b838110156106c15780820151818401526020810190506106a6565b50505050905090810190601f1680156106ee5780820380516001836020036101000a031916815260200191505b50995050505050505050505060405180910390f35b34801561070f57600080fd5b5061089660048036038101908080359060200190929190803590602001908201803590602001908080601f0160208091040260200160405190810160405280939291908181526020018383808284378201915050505050509192919290803590602001908201803590602001908080601f0160208091040260200160405190810160405280939291908181526020018383808284378201915050505050509192919290803590602001908201803590602001908080601f0160208091040260200160405190810160405280939291908181526020018383808284378201915050505050509192919290803590602001908201803590602001908080601f016020809104026020016040519081016040528093929190818152602001838380828437820191505050505050919291929080359060200190929190803590602001908201803590602001908080601f0160208091040260200160405190810160405280939291908181526020018383808284378201915050505050509192919290505050610da1565b005b60016020528060005260406000206000915054906101000a900460ff1681565b6000602052806000526040600020600091509050806000018054600181600116156101000203166002900480601f0160208091040260200160405190810160405280929190818152602001828054600181600116156101000203166002900480156109645780601f1061093957610100808354040283529160200191610964565b820191906000526020600020905b81548152906001019060200180831161094757829003601f168201915b505050505090806001018054600181600116156101000203166002900480601f016020809104026020016040519081016040528092919081815260200182805460018160011615610100020316600290048015610a025780601f106109d757610100808354040283529160200191610a02565b820191906000526020600020905b8154815290600101906020018083116109e557829003601f168201915b505050505090806002018054600181600116156101000203166002900480601f016020809104026020016040519081016040528092919081815260200182805460018160011615610100020316600290048015610aa05780601f10610a7557610100808354040283529160200191610aa0565b820191906000526020600020905b815481529060010190602001808311610a8357829003601f168201915b505050505090806003018054600181600116156101000203166002900480601f016020809104026020016040519081016040528092919081815260200182805460018160011615610100020316600290048015610b3e5780601f10610b1357610100808354040283529160200191610b3e565b820191906000526020600020905b815481529060010190602001808311610b2157829003601f168201915b505050505090806004018054600181600116156101000203166002900480601f016020809104026020016040519081016040528092919081815260200182805460018160011615610100020316600290048015610bdc5780601f10610bb157610100808354040283529160200191610bdc565b820191906000526020600020905b815481529060010190602001808311610bbf57829003601f168201915b5050505050908060050154905086565b60045481565b60606000808381526020019081526020016000206000018054600181600116156101000203166002900480601f016020809104026020016040519081016040528092919081815260200182805460018160011615610100020316600290048015610c9d5780601f10610c7257610100808354040283529160200191610c9d565b820191906000526020600020905b815481529060010190602001808311610c8057829003601f168201915b50505050509050919050565b60026020528060005260406000206000915054906101000a900460ff1681565b8060038190555050565b60035481565b600560009054906101000a900473ffffffffffffffffffffffffffffffffffffffff1673ffffffffffffffffffffffffffffffffffffffff163373ffffffffffffffffffffffffffffffffffffffff16141515610d3557600080fd5b6001600260008373ffffffffffffffffffffffffffffffffffffffff1673ffffffffffffffffffffffffffffffffffffffff16815260200190815260200160002060006101000a81548160ff02191690831515021790555050565b606080606080600091939590929450565b600260003373ffffffffffffffffffffffffffffffffffffffff1673ffffffffffffffffffffffffffffffffffffffff16815260200190815260200160002060009054906101000a900460ff1680610e465750600560009054906101000a900473ffffffffffffffffffffffffffffffffffffffff1673ffffffffffffffffffffffffffffffffffffffff163373ffffffffffffffffffffffffffffffffffffffff16145b1515610eba576040517f08c379a000000000000000000000000000000000000000000000000000000000815260040180806020018281038252600c8152602001807f496e76616c69642075736572000000000000000000000000000000000000000081525060200191505060405180910390fd5b60c060405190810160405280878152602001868152602001858152602001848152602001828152602001838152506000808981526020019081526020016000206000820151816000019080519060200190610f1692919061123e565b506020820151816001019080519060200190610f3392919061123e565b506040820151816002019080519060200190610f5092919061123e565b506060820151816003019080519060200190610f6d92919061123e565b506080820151816004019080519060200190610f8a92919061123e565b5060a08201518160050155905050600180600089815260200190815260200160002060006101000a81548160ff0219169083151502179055506004600081548092919060010191905055507f6501f35391889666699472dfd0d522f78357a638ee22c4f00d951c057371c3548787878787878760405180888152602001806020018060200180602001806020018781526020018060200186810386528c818151815260200191508051906020019080838360005b8381101561105957808201518184015260208101905061103e565b50505050905090810190601f1680156110865780820380516001836020036101000a031916815260200191505b5086810385528b818151815260200191508051906020019080838360005b838110156110bf5780820151818401526020810190506110a4565b50505050905090810190601f1680156110ec5780820380516001836020036101000a031916815260200191505b5086810384528a818151815260200191508051906020019080838360005b8381101561112557808201518184015260208101905061110a565b50505050905090810190601f1680156111525780820380516001836020036101000a031916815260200191505b50868103835289818151815260200191508051906020019080838360005b8381101561118b578082015181840152602081019050611170565b50505050905090810190601f1680156111b85780820380516001836020036101000a031916815260200191505b50868103825287818151815260200191508051906020019080838360005b838110156111f15780820151818401526020810190506111d6565b50505050905090810190601f16801561121e5780820380516001836020036101000a031916815260200191505b509c5050505050505050505050505060405180910390a150505050505050565b828054600181600116156101000203166002900490600052602060002090601f016020900481019282601f1061127f57805160ff19168380011785556112ad565b828001600101855582156112ad579182015b828111156112ac578251825591602001919060010190611291565b5b5090506112ba91906112be565b5090565b6112e091905b808211156112dc5760008160009055506001016112c4565b5090565b905600a165627a7a72305820579bfa583bd00d8409571096ef8f3999f25df819216d6dfc6a93ecdc900257db0029",
  "source": "pragma solidity ^0.4.24;\r\n\r\ncontract StudentCert{\r\n    \r\n    struct details{\r\n        string name;\r\n        string course;\r\n        string matric_num;\r\n        string dob;\r\n        string graddate;\r\n        int gpa;\r\n\r\n    }\r\n    \r\n    struct semester{\r\n        int gpa;\r\n        int courseWork;\r\n    }\r\n\r\n    event logAddedStudent (uint ic, string name, string course, string matric_num, string dob, int gpa, string graddate);\r\n    \r\n    mapping(uint => details) public Student;\r\n    mapping (uint => bool) public exist;\r\n    \r\n    //create a array of user that can write \r\n    mapping(address => bool) public UniversityAdmin;\r\n\r\n    //golbal ic number\r\n    uint public ic;\r\n    \r\n    //counter for  number of student\r\n    uint public studentsCount;\r\n    \r\n    //address of owner is only one. User 1.\r\n    address owner ;\r\n\r\n    \r\n    //run skali sahaja\r\n    constructor() public{\r\n        owner = msg.sender;        \r\n    }\r\n    \r\n    function setIC(uint _ic) public{\r\n        ic=_ic;\r\n    }\r\n    function addStudent(\r\n        //list of variable in details\r\n        uint _ic,\r\n        string _name,\r\n        string _course,\r\n        string _matric_num,\r\n        string _dob,\r\n        int _gpa,\r\n        string _graddate) public {\r\n        require(UniversityAdmin[msg.sender] || msg.sender == owner, \"Invalid user\");\r\n        // require(!exist[_ic], \"The user do not exist\");\r\n        // .addStudent( 123, 'name', 'Solidity', 'ballot','2018-01-01',4,'2018-10-10')\r\n        \r\n        Student[_ic] = details(_name,_course,_matric_num, _dob,_graddate, _gpa);\r\n        exist[_ic] = true;\r\n        studentsCount++;\r\n        emit logAddedStudent(_ic, _name, _course, _matric_num, _dob, _gpa, _graddate);\r\n        \r\n    }\r\n    \r\n    function getDetails(uint _ic) public returns (string, string, string, string, int) {\r\n        // return (Student[_ic].name, Student[_ic].course, Student[_ic].matric_num,Student[_ic].dob,Student[_ic].gpa );\r\n        \r\n        \r\n    }\r\n\r\n    function getName(uint _ic) public returns (string){\r\n        return (Student[_ic].name);\r\n    }\r\n    \r\n    function addUniAddress(address _address) public{\r\n    \trequire(msg.sender == owner);\r\n        UniversityAdmin[_address] = true;\r\n    }\r\n    \r\n    \r\n}\r\n",
  "sourcePath": "C:\\Users\\SAM\\OneDrive\\FSKTM\\Blocklime Blockchain\\StudentCert\\contracts\\StudentCert.sol",
  "compiler": {
    "name": "solc",
    "version": "0.4.24+commit.e67f0147.Emscripten.clang"
  },
  "schemaVersion": "2.0.1",
  "updatedAt": "2018-08-25T13:54:23.727Z"
}