{
  "contractName": "SmartZakat",
  "abi": [
    {
      "constant": true,
      "inputs": [
        {
          "name": "",
          "type": "address"
        }
      ],
      "name": "ListAgency",
      "outputs": [
        {
          "name": "AgencyName",
          "type": "string"
        },
        {
          "name": "Agency_address",
          "type": "address"
        },
        {
          "name": "AgencyCode",
          "type": "uint256"
        }
      ],
      "payable": false,
      "stateMutability": "view",
      "type": "function"
    },
    {
      "constant": true,
      "inputs": [
        {
          "name": "",
          "type": "uint256"
        }
      ],
      "name": "user",
      "outputs": [
        {
          "name": "UniqueID",
          "type": "string"
        },
        {
          "name": "IC",
          "type": "uint256"
        },
        {
          "name": "name",
          "type": "string"
        },
        {
          "name": "AgencyAddress",
          "type": "address"
        },
        {
          "name": "AgencyName",
          "type": "string"
        },
        {
          "name": "countFundReceived",
          "type": "uint256"
        }
      ],
      "payable": false,
      "stateMutability": "view",
      "type": "function"
    },
    {
      "constant": true,
      "inputs": [
        {
          "name": "",
          "type": "uint256"
        },
        {
          "name": "",
          "type": "uint256"
        }
      ],
      "name": "UserFund",
      "outputs": [
        {
          "name": "sender",
          "type": "address"
        },
        {
          "name": "Agency",
          "type": "string"
        },
        {
          "name": "value",
          "type": "uint256"
        },
        {
          "name": "date",
          "type": "string"
        }
      ],
      "payable": false,
      "stateMutability": "view",
      "type": "function"
    },
    {
      "constant": true,
      "inputs": [],
      "name": "owner",
      "outputs": [
        {
          "name": "",
          "type": "address"
        }
      ],
      "payable": false,
      "stateMutability": "view",
      "type": "function"
    },
    {
      "constant": true,
      "inputs": [
        {
          "name": "",
          "type": "uint256"
        }
      ],
      "name": "money",
      "outputs": [
        {
          "name": "sender",
          "type": "address"
        },
        {
          "name": "Agency",
          "type": "string"
        },
        {
          "name": "value",
          "type": "uint256"
        },
        {
          "name": "date",
          "type": "string"
        }
      ],
      "payable": false,
      "stateMutability": "view",
      "type": "function"
    },
    {
      "inputs": [],
      "payable": false,
      "stateMutability": "nonpayable",
      "type": "constructor"
    },
    {
      "anonymous": false,
      "inputs": [
        {
          "indexed": false,
          "name": "_IC",
          "type": "uint256"
        },
        {
          "indexed": false,
          "name": "Name",
          "type": "string"
        },
        {
          "indexed": false,
          "name": "_Owner",
          "type": "address"
        },
        {
          "indexed": false,
          "name": "AgencyName",
          "type": "string"
        }
      ],
      "name": "UserAdded",
      "type": "event"
    },
    {
      "anonymous": false,
      "inputs": [
        {
          "indexed": false,
          "name": "Recipient",
          "type": "uint256"
        },
        {
          "indexed": false,
          "name": "From",
          "type": "address"
        },
        {
          "indexed": false,
          "name": "Amount",
          "type": "uint256"
        },
        {
          "indexed": false,
          "name": "Date",
          "type": "string"
        }
      ],
      "name": "transferFundEvent",
      "type": "event"
    },
    {
      "anonymous": false,
      "inputs": [
        {
          "indexed": false,
          "name": "_IC",
          "type": "uint256"
        },
        {
          "indexed": false,
          "name": "Name",
          "type": "string"
        },
        {
          "indexed": false,
          "name": "_Owner",
          "type": "address"
        },
        {
          "indexed": false,
          "name": "AgencyName",
          "type": "string"
        }
      ],
      "name": "addUserEvent",
      "type": "event"
    },
    {
      "anonymous": false,
      "inputs": [
        {
          "indexed": false,
          "name": "Name",
          "type": "string"
        },
        {
          "indexed": false,
          "name": "Address",
          "type": "address"
        }
      ],
      "name": "addAgencyEvent",
      "type": "event"
    },
    {
      "constant": false,
      "inputs": [
        {
          "name": "_AgencyName",
          "type": "string"
        },
        {
          "name": "new_Agency",
          "type": "address"
        }
      ],
      "name": "AddAgency",
      "outputs": [],
      "payable": false,
      "stateMutability": "nonpayable",
      "type": "function"
    },
    {
      "constant": true,
      "inputs": [
        {
          "name": "_agencyAddress",
          "type": "address"
        }
      ],
      "name": "getAgency",
      "outputs": [
        {
          "name": "_AgencyName",
          "type": "string"
        },
        {
          "name": "_Agency_address",
          "type": "address"
        },
        {
          "name": "_AgencyCode",
          "type": "uint256"
        }
      ],
      "payable": false,
      "stateMutability": "view",
      "type": "function"
    },
    {
      "constant": true,
      "inputs": [
        {
          "name": "agencyAddress",
          "type": "address"
        }
      ],
      "name": "verificationAgency",
      "outputs": [
        {
          "name": "_verify",
          "type": "bool"
        }
      ],
      "payable": false,
      "stateMutability": "view",
      "type": "function"
    },
    {
      "constant": false,
      "inputs": [
        {
          "name": "_IC",
          "type": "uint256"
        },
        {
          "name": "_name",
          "type": "string"
        }
      ],
      "name": "AddUser",
      "outputs": [],
      "payable": false,
      "stateMutability": "nonpayable",
      "type": "function"
    },
    {
      "constant": true,
      "inputs": [
        {
          "name": "_IC",
          "type": "uint256"
        }
      ],
      "name": "getUserDetails",
      "outputs": [
        {
          "name": "_agencyAddress",
          "type": "address"
        },
        {
          "name": "_AgencyName",
          "type": "string"
        },
        {
          "name": "_Name",
          "type": "string"
        }
      ],
      "payable": false,
      "stateMutability": "view",
      "type": "function"
    },
    {
      "constant": true,
      "inputs": [
        {
          "name": "_IC",
          "type": "uint256"
        },
        {
          "name": "index",
          "type": "uint256"
        }
      ],
      "name": "getFund",
      "outputs": [
        {
          "name": "sender",
          "type": "address"
        },
        {
          "name": "AgencyName",
          "type": "string"
        },
        {
          "name": "value",
          "type": "uint256"
        },
        {
          "name": "date",
          "type": "string"
        }
      ],
      "payable": false,
      "stateMutability": "view",
      "type": "function"
    },
    {
      "constant": true,
      "inputs": [
        {
          "name": "_IC",
          "type": "uint256"
        }
      ],
      "name": "verify",
      "outputs": [
        {
          "name": "_verify",
          "type": "bool"
        }
      ],
      "payable": false,
      "stateMutability": "view",
      "type": "function"
    },
    {
      "constant": false,
      "inputs": [
        {
          "name": "_IC",
          "type": "uint256"
        },
        {
          "name": "_sender",
          "type": "address"
        },
        {
          "name": "_value",
          "type": "uint256"
        },
        {
          "name": "_date",
          "type": "string"
        }
      ],
      "name": "transFund",
      "outputs": [],
      "payable": false,
      "stateMutability": "nonpayable",
      "type": "function"
    }
  ],
  "bytecode": "0x60806040526000610fa15534801561001657600080fd5b5033610fa060006101000a81548173ffffffffffffffffffffffffffffffffffffffff021916908373ffffffffffffffffffffffffffffffffffffffff1602179055506124d9806100686000396000f3006080604052600436106100c5576000357c0100000000000000000000000000000000000000000000000000000000900463ffffffff16806303060818146100ca5780631c1a9f7b146102205780632dc8c5fb146103655780634d4683271461045b5780634e8c5042146104ce578063553275be146105c457806375774d7d146107835780638753367f146108d957806388986e371461091e5780638da5cb5b14610979578063b05df2fc146109d0578063b9c679ce14610a6d578063d2db539a14610bb9575b600080fd5b3480156100d657600080fd5b506100ff6004803603810190808035906020019092919080359060200190929190505050610c42565b604051808573ffffffffffffffffffffffffffffffffffffffff1673ffffffffffffffffffffffffffffffffffffffff1681526020018060200184815260200180602001838103835286818151815260200191508051906020019080838360005b8381101561017b578082015181840152602081019050610160565b50505050905090810190601f1680156101a85780820380516001836020036101000a031916815260200191505b50838103825284818151815260200191508051906020019080838360005b838110156101e15780820151818401526020810190506101c6565b50505050905090810190601f16801561020e5780820380516001836020036101000a031916815260200191505b50965050505050505060405180910390f35b34801561022c57600080fd5b5061024b60048036038101908080359060200190929190505050610e4f565b604051808473ffffffffffffffffffffffffffffffffffffffff1673ffffffffffffffffffffffffffffffffffffffff1681526020018060200180602001838103835285818151815260200191508051906020019080838360005b838110156102c15780820151818401526020810190506102a6565b50505050905090810190601f1680156102ee5780820380516001836020036101000a031916815260200191505b50838103825284818151815260200191508051906020019080838360005b8381101561032757808201518184015260208101905061030c565b50505050905090810190601f1680156103545780820380516001836020036101000a031916815260200191505b509550505050505060405180910390f35b34801561037157600080fd5b506103a6600480360381019080803573ffffffffffffffffffffffffffffffffffffffff1690602001909291905050506110c4565b60405180806020018473ffffffffffffffffffffffffffffffffffffffff1673ffffffffffffffffffffffffffffffffffffffff168152602001838152602001828103825285818151815260200191508051906020019080838360005b8381101561041e578082015181840152602081019050610403565b50505050905090810190601f16801561044b5780820380516001836020036101000a031916815260200191505b5094505050505060405180910390f35b34801561046757600080fd5b506104cc60048036038101908080359060200190929190803590602001908201803590602001908080601f01602080910402602001604051908101604052809392919081815260200183838082843782019150505050505091929192905050506112b7565b005b3480156104da57600080fd5b5061050f600480360381019080803573ffffffffffffffffffffffffffffffffffffffff169060200190929190505050611688565b60405180806020018473ffffffffffffffffffffffffffffffffffffffff1673ffffffffffffffffffffffffffffffffffffffff168152602001838152602001828103825285818151815260200191508051906020019080838360005b8381101561058757808201518184015260208101905061056c565b50505050905090810190601f1680156105b45780820380516001836020036101000a031916815260200191505b5094505050505060405180910390f35b3480156105d057600080fd5b506105ef6004803603810190808035906020019092919050505061176b565b6040518080602001878152602001806020018673ffffffffffffffffffffffffffffffffffffffff1673ffffffffffffffffffffffffffffffffffffffff1681526020018060200185815260200184810384528a818151815260200191508051906020019080838360005b8381101561067557808201518184015260208101905061065a565b50505050905090810190601f1680156106a25780820380516001836020036101000a031916815260200191505b50848103835288818151815260200191508051906020019080838360005b838110156106db5780820151818401526020810190506106c0565b50505050905090810190601f1680156107085780820380516001836020036101000a031916815260200191505b50848103825286818151815260200191508051906020019080838360005b83811015610741578082015181840152602081019050610726565b50505050905090810190601f16801561076e5780820380516001836020036101000a031916815260200191505b50995050505050505050505060405180910390f35b34801561078f57600080fd5b506107b86004803603810190808035906020019092919080359060200190929190505050611990565b604051808573ffffffffffffffffffffffffffffffffffffffff1673ffffffffffffffffffffffffffffffffffffffff1681526020018060200184815260200180602001838103835286818151815260200191508051906020019080838360005b83811015610834578082015181840152602081019050610819565b50505050905090810190601f1680156108615780820380516001836020036101000a031916815260200191505b50838103825284818151815260200191508051906020019080838360005b8381101561089a57808201518184015260208101905061087f565b50505050905090810190601f1680156108c75780820380516001836020036101000a031916815260200191505b50965050505050505060405180910390f35b3480156108e557600080fd5b5061090460048036038101908080359060200190929190505050611b1e565b604051808215151515815260200191505060405180910390f35b34801561092a57600080fd5b5061095f600480360381019080803573ffffffffffffffffffffffffffffffffffffffff169060200190929190505050611b53565b604051808215151515815260200191505060405180910390f35b34801561098557600080fd5b5061098e611bea565b604051808273ffffffffffffffffffffffffffffffffffffffff1673ffffffffffffffffffffffffffffffffffffffff16815260200191505060405180910390f35b3480156109dc57600080fd5b50610a6b60048036038101908080359060200190929190803573ffffffffffffffffffffffffffffffffffffffff16906020019092919080359060200190929190803590602001908201803590602001908080601f0160208091040260200160405190810160405280939291908181526020018383808284378201915050505050509192919290505050611c11565b005b348015610a7957600080fd5b50610a9860048036038101908080359060200190929190505050611f99565b604051808573ffffffffffffffffffffffffffffffffffffffff1673ffffffffffffffffffffffffffffffffffffffff1681526020018060200184815260200180602001838103835286818151815260200191508051906020019080838360005b83811015610b14578082015181840152602081019050610af9565b50505050905090810190601f168015610b415780820380516001836020036101000a031916815260200191505b50838103825284818151815260200191508051906020019080838360005b83811015610b7a578082015181840152602081019050610b5f565b50505050905090810190601f168015610ba75780820380516001836020036101000a031916815260200191505b50965050505050505060405180910390f35b348015610bc557600080fd5b50610c40600480360381019080803590602001908201803590602001908080601f0160208091040260200160405190810160405280939291908181526020018383808284378201915050505050509192919290803573ffffffffffffffffffffffffffffffffffffffff16906020019092919050505061211f565b005b6000606060006060610fa46000878152602001908152602001600020600086815260200190815260200160002060000160009054906101000a900473ffffffffffffffffffffffffffffffffffffffff169350610fa4600087815260200190815260200160002060008681526020019081526020016000206001018054600181600116156101000203166002900480601f016020809104026020016040519081016040528092919081815260200182805460018160011615610100020316600290048015610d515780601f10610d2657610100808354040283529160200191610d51565b820191906000526020600020905b815481529060010190602001808311610d3457829003601f168201915b50505050509250610fa460008781526020019081526020016000206000868152602001908152602001600020600201549150610fa4600087815260200190815260200160002060008681526020019081526020016000206003018054600181600116156101000203166002900480601f016020809104026020016040519081016040528092919081815260200182805460018160011615610100020316600290048015610e3f5780601f10610e1457610100808354040283529160200191610e3f565b820191906000526020600020905b815481529060010190602001808311610e2257829003601f168201915b5050505050905092959194509250565b6000606080333373ffffffffffffffffffffffffffffffffffffffff16610fa360008373ffffffffffffffffffffffffffffffffffffffff1673ffffffffffffffffffffffffffffffffffffffff16815260200190815260200160002060010160009054906101000a900473ffffffffffffffffffffffffffffffffffffffff1673ffffffffffffffffffffffffffffffffffffffff16141515610ef257600080fd5b610fa2600086815260200190815260200160002060030160009054906101000a900473ffffffffffffffffffffffffffffffffffffffff169350610fa360008573ffffffffffffffffffffffffffffffffffffffff1673ffffffffffffffffffffffffffffffffffffffff1681526020019081526020016000206000018054600181600116156101000203166002900480601f0160208091040260200160405190810160405280929190818152602001828054600181600116156101000203166002900480156110035780601f10610fd857610100808354040283529160200191611003565b820191906000526020600020905b815481529060010190602001808311610fe657829003601f168201915b50505050509250610fa260008681526020019081526020016000206002018054600181600116156101000203166002900480601f0160208091040260200160405190810160405280929190818152602001828054600181600116156101000203166002900480156110b55780601f1061108a576101008083540402835291602001916110b5565b820191906000526020600020905b81548152906001019060200180831161109857829003601f168201915b50505050509150509193909250565b6060600080610fa060009054906101000a900473ffffffffffffffffffffffffffffffffffffffff1673ffffffffffffffffffffffffffffffffffffffff163373ffffffffffffffffffffffffffffffffffffffff1614151561112657600080fd5b610fa360008573ffffffffffffffffffffffffffffffffffffffff1673ffffffffffffffffffffffffffffffffffffffff1681526020019081526020016000206000018054600181600116156101000203166002900480601f0160208091040260200160405190810160405280929190818152602001828054600181600116156101000203166002900480156111fd5780601f106111d2576101008083540402835291602001916111fd565b820191906000526020600020905b8154815290600101906020018083116111e057829003601f168201915b50505050509250610fa360008573ffffffffffffffffffffffffffffffffffffffff1673ffffffffffffffffffffffffffffffffffffffff16815260200190815260200160002060010160009054906101000a900473ffffffffffffffffffffffffffffffffffffffff169150610fa360008573ffffffffffffffffffffffffffffffffffffffff1673ffffffffffffffffffffffffffffffffffffffff1681526020019081526020016000206002015490509193909250565b8180610fa2600083815260200190815260200160002060010154141515156112de57600080fd5b333373ffffffffffffffffffffffffffffffffffffffff16610fa360008373ffffffffffffffffffffffffffffffffffffffff1673ffffffffffffffffffffffffffffffffffffffff16815260200190815260200160002060010160009054906101000a900473ffffffffffffffffffffffffffffffffffffffff1673ffffffffffffffffffffffffffffffffffffffff1614151561137c57600080fd5b83610fa260008681526020019081526020016000206001018190555033610fa2600086815260200190815260200160002060030160006101000a81548173ffffffffffffffffffffffffffffffffffffffff021916908373ffffffffffffffffffffffffffffffffffffffff160217905550610fa360003373ffffffffffffffffffffffffffffffffffffffff1673ffffffffffffffffffffffffffffffffffffffff168152602001908152602001600020600001610fa260008681526020019081526020016000206004019080546001816001161561010002031660029004611467929190612381565b5082610fa260008681526020019081526020016000206002019080519060200190611493929190612408565b507ffbafcb3636cf77fd3d51b16911ced5e59735edf460836fc0f6d37af5cbbe656e610fa2600086815260200190815260200160002060010154610fa2600087815260200190815260200160002060020133610fa360003373ffffffffffffffffffffffffffffffffffffffff1673ffffffffffffffffffffffffffffffffffffffff16815260200190815260200160002060000160405180858152602001806020018473ffffffffffffffffffffffffffffffffffffffff1673ffffffffffffffffffffffffffffffffffffffff168152602001806020018381038352868181546001816001161561010002031660029004815260200191508054600181600116156101000203166002900480156115ed5780601f106115c2576101008083540402835291602001916115ed565b820191906000526020600020905b8154815290600101906020018083116115d057829003601f168201915b50508381038252848181546001816001161561010002031660029004815260200191508054600181600116156101000203166002900480156116705780601f1061164557610100808354040283529160200191611670565b820191906000526020600020905b81548152906001019060200180831161165357829003601f168201915b5050965050505050505060405180910390a150505050565b610fa3602052806000526040600020600091509050806000018054600181600116156101000203166002900480601f0160208091040260200160405190810160405280929190818152602001828054600181600116156101000203166002900480156117355780601f1061170a57610100808354040283529160200191611735565b820191906000526020600020905b81548152906001019060200180831161171857829003601f168201915b5050505050908060010160009054906101000a900473ffffffffffffffffffffffffffffffffffffffff16908060020154905083565b610fa2602052806000526040600020600091509050806000018054600181600116156101000203166002900480601f0160208091040260200160405190810160405280929190818152602001828054600181600116156101000203166002900480156118185780601f106117ed57610100808354040283529160200191611818565b820191906000526020600020905b8154815290600101906020018083116117fb57829003601f168201915b505050505090806001015490806002018054600181600116156101000203166002900480601f0160208091040260200160405190810160405280929190818152602001828054600181600116156101000203166002900480156118bc5780601f10611891576101008083540402835291602001916118bc565b820191906000526020600020905b81548152906001019060200180831161189f57829003601f168201915b5050505050908060030160009054906101000a900473ffffffffffffffffffffffffffffffffffffffff1690806004018054600181600116156101000203166002900480601f0160208091040260200160405190810160405280929190818152602001828054600181600116156101000203166002900480156119805780601f1061195557610100808354040283529160200191611980565b820191906000526020600020905b81548152906001019060200180831161196357829003601f168201915b5050505050908060050154905086565b610fa4602052816000526040600020602052806000526040600020600091509150508060000160009054906101000a900473ffffffffffffffffffffffffffffffffffffffff1690806001018054600181600116156101000203166002900480601f016020809104026020016040519081016040528092919081815260200182805460018160011615610100020316600290048015611a705780601f10611a4557610100808354040283529160200191611a70565b820191906000526020600020905b815481529060010190602001808311611a5357829003601f168201915b505050505090806002015490806003018054600181600116156101000203166002900480601f016020809104026020016040519081016040528092919081815260200182805460018160011615610100020316600290048015611b145780601f10611ae957610100808354040283529160200191611b14565b820191906000526020600020905b815481529060010190602001808311611af757829003601f168201915b5050505050905084565b600080610fa2600084815260200190815260200160002060010154141515611b495760019050611b4e565b600090505b919050565b600080610fa360008473ffffffffffffffffffffffffffffffffffffffff1673ffffffffffffffffffffffffffffffffffffffff16815260200190815260200160002060010160009054906101000a900473ffffffffffffffffffffffffffffffffffffffff1673ffffffffffffffffffffffffffffffffffffffff16141515611be05760019050611be5565b600090505b919050565b610fa060009054906101000a900473ffffffffffffffffffffffffffffffffffffffff1681565b6000333373ffffffffffffffffffffffffffffffffffffffff16610fa360008373ffffffffffffffffffffffffffffffffffffffff1673ffffffffffffffffffffffffffffffffffffffff16815260200190815260200160002060010160009054906101000a900473ffffffffffffffffffffffffffffffffffffffff1673ffffffffffffffffffffffffffffffffffffffff16141515611cb157600080fd5b856000610fa260008381526020019081526020016000206001015414151515611cd957600080fd5b8573ffffffffffffffffffffffffffffffffffffffff163373ffffffffffffffffffffffffffffffffffffffff16141515611d1357600080fd5b610fa2600088815260200190815260200160002060050154925033610fa46000898152602001908152602001600020600085815260200190815260200160002060000160006101000a81548173ffffffffffffffffffffffffffffffffffffffff021916908373ffffffffffffffffffffffffffffffffffffffff160217905550610fa360003373ffffffffffffffffffffffffffffffffffffffff1673ffffffffffffffffffffffffffffffffffffffff168152602001908152602001600020600001610fa4600089815260200190815260200160002060008581526020019081526020016000206001019080546001816001161561010002031660029004611e1e929190612381565b5084610fa4600089815260200190815260200160002060008581526020019081526020016000206002018190555083610fa4600089815260200190815260200160002060008581526020019081526020016000206003019080519060200190611e88929190612408565b50610fa26000888152602001908152602001600020600501600081548092919060010191905055507f4d912bd23a23b3ef59dec3bb9f2e54a3aec1b1a39adb89bf4ade1719b01cd4ea87338787604051808581526020018473ffffffffffffffffffffffffffffffffffffffff1673ffffffffffffffffffffffffffffffffffffffff16815260200183815260200180602001828103825283818151815260200191508051906020019080838360005b83811015611f53578082015181840152602081019050611f38565b50505050905090810190601f168015611f805780820380516001836020036101000a031916815260200191505b509550505050505060405180910390a150505050505050565b6000816103e881101515611fa957fe5b600402016000915090508060000160009054906101000a900473ffffffffffffffffffffffffffffffffffffffff1690806001018054600181600116156101000203166002900480601f0160208091040260200160405190810160405280929190818152602001828054600181600116156101000203166002900480156120715780601f1061204657610100808354040283529160200191612071565b820191906000526020600020905b81548152906001019060200180831161205457829003601f168201915b505050505090806002015490806003018054600181600116156101000203166002900480601f0160208091040260200160405190810160405280929190818152602001828054600181600116156101000203166002900480156121155780601f106120ea57610100808354040283529160200191612115565b820191906000526020600020905b8154815290600101906020018083116120f857829003601f168201915b5050505050905084565b610fa060009054906101000a900473ffffffffffffffffffffffffffffffffffffffff1673ffffffffffffffffffffffffffffffffffffffff163373ffffffffffffffffffffffffffffffffffffffff1614151561217c57600080fd5b80610fa360008373ffffffffffffffffffffffffffffffffffffffff1673ffffffffffffffffffffffffffffffffffffffff16815260200190815260200160002060010160006101000a81548173ffffffffffffffffffffffffffffffffffffffff021916908373ffffffffffffffffffffffffffffffffffffffff16021790555081610fa360008373ffffffffffffffffffffffffffffffffffffffff1673ffffffffffffffffffffffffffffffffffffffff1681526020019081526020016000206000019080519060200190612255929190612408565b50610fa160008154600101919050819055610fa360008373ffffffffffffffffffffffffffffffffffffffff1673ffffffffffffffffffffffffffffffffffffffff168152602001908152602001600020600201819055507f04b2856a8d5b49bf0fa562491d66a4ac27825b51e9dbd65ffa539838ed6aff8d828260405180806020018373ffffffffffffffffffffffffffffffffffffffff1673ffffffffffffffffffffffffffffffffffffffff168152602001828103825284818151815260200191508051906020019080838360005b83811015612342578082015181840152602081019050612327565b50505050905090810190601f16801561236f5780820380516001836020036101000a031916815260200191505b50935050505060405180910390a15050565b828054600181600116156101000203166002900490600052602060002090601f016020900481019282601f106123ba57805485556123f7565b828001600101855582156123f757600052602060002091601f016020900482015b828111156123f65782548255916001019190600101906123db565b5b5090506124049190612488565b5090565b828054600181600116156101000203166002900490600052602060002090601f016020900481019282601f1061244957805160ff1916838001178555612477565b82800160010185558215612477579182015b8281111561247657825182559160200191906001019061245b565b5b5090506124849190612488565b5090565b6124aa91905b808211156124a657600081600090555060010161248e565b5090565b905600a165627a7a72305820efbc7f06f3fb735b22f732802208244bc2edc7977eb439fb7ad7d88aaae3cb630029",
  "source": "pragma solidity ^0.4.24;\r\n\r\ncontract SmartZakat{\r\n\r\n    //list of details on a fund send to a user\r\n    struct Fund{\r\n        address sender;\r\n        string Agency;\r\n        uint value;\r\n        string date;\r\n    }\r\n\r\n    //Agency Details\r\n    struct Agency{\r\n        string AgencyName;\r\n        address Agency_address;\r\n        uint AgencyCode;\r\n    }\r\n\r\n    //list of variables for user\r\n    struct userDetails{\r\n\r\n        string UniqueID;\r\n        uint IC;\r\n        string name;\r\n        address AgencyAddress;\r\n        string AgencyName;\r\n        uint countFundReceived;\r\n\r\n        //mapping every fund receive\r\n        // mapping(address => UserFund) receivedFund;\r\n    }\r\n\r\n    Fund[1000] public money;\r\n\r\n    /*function getMoney(uint[] indexes)\r\n        public  \r\n        returns (address[], string[], uint[], string[])\r\n    {\r\n        address[] memory addrs = new address[](indexes.length);\r\n        string[] memory aggen = new string[](indexes.length);\r\n        uint[] memory amount = new uint[](indexes.length);\r\n        string[] memory date = new string[](indexes.length);\r\n\r\n        for (uint i = 0; i < indexes.length; i++) {\r\n            Fund storage fund = money[indexes[i]];\r\n            addrs[i] = fund.addrs;\r\n            aggen[i] = fund.aggen;\r\n            amount[i] = fund.amount;\r\n            date[i] = fund.date;\r\n        }\r\n        return (addrs, aggen, amount, date);\r\n    }*/\r\n\r\n    event UserAdded(uint _IC, string Name, address _Owner, string AgencyName );\r\n    event transferFundEvent (uint Recipient, address From, uint Amount, string Date);\r\n    event addUserEvent(uint _IC, string Name, address _Owner, string AgencyName );\r\n    event addAgencyEvent(string Name, address Address);\r\n\r\n\r\n\r\n    //Address of owner\r\n    address public owner;\r\n    uint AgencyCode = 0;\r\n\r\n    constructor() public {\r\n        owner = msg.sender;\r\n    }\r\n\r\n    //map the UniqueID with the userDetails\r\n    mapping(uint => userDetails) public user;\r\n\r\n    //mapping address to agency details\r\n    mapping(address => Agency) public ListAgency;\r\n    //mapping ic with every Fund.\r\n    //first uint is IC, second uint is fund counter\r\n    mapping(uint => mapping(uint => Fund)) public UserFund;\r\n    // mapping(uint => Fund) public UserFund;\r\n\r\n\r\n\r\n\r\n\r\n    //Add Authority which they can add people\r\n    function AddAgency(string _AgencyName, address new_Agency) public isOwner {\r\n        ListAgency[new_Agency].Agency_address = new_Agency;\r\n        ListAgency[new_Agency].AgencyName = _AgencyName;\r\n        ListAgency[new_Agency].AgencyCode = ++AgencyCode;\r\n\r\n        emit addAgencyEvent(_AgencyName, new_Agency);\r\n\r\n    }\r\n\r\n    function getAgency(address _agencyAddress) isOwner public view returns  (\r\n        string _AgencyName,\r\n        address _Agency_address,\r\n        uint _AgencyCode\r\n        ){\r\n\r\n        _AgencyName = ListAgency[_agencyAddress].AgencyName;\r\n        _Agency_address = ListAgency[_agencyAddress].Agency_address;\r\n        _AgencyCode = ListAgency[_agencyAddress].AgencyCode;\r\n    }\r\n\r\n    function verificationAgency(address agencyAddress) public view returns (bool _verify){\r\n        if(ListAgency[agencyAddress].Agency_address != 0x0){\r\n            _verify =  true;\r\n        }else{\r\n            _verify = false;\r\n        }\r\n    }\r\n\r\n    //Add userDetails\r\n    //only Agency can add user, owner cannot add\r\n    function AddUser(\r\n\r\n        uint _IC,\r\n        string _name\r\n\r\n        ) public isUserNotExist(_IC)  isAgency(msg.sender) {\r\n\r\n        user[_IC].IC = _IC;\r\n        user[_IC].AgencyAddress = msg.sender;\r\n        user[_IC].AgencyName = ListAgency[msg.sender].AgencyName;\r\n        user[_IC].name = _name;\r\n\r\n        emit UserAdded(user[_IC].IC, user[_IC].name, msg.sender, ListAgency[msg.sender].AgencyName);\r\n\r\n    }\r\n\r\n    //return every single details that are map on them\r\n    //only Authority agency can call this function\r\n    function getUserDetails(uint _IC) isAgency(msg.sender) public view returns (\r\n\r\n        address _agencyAddress,\r\n        string _AgencyName,\r\n        string _Name\r\n        ){\r\n\r\n        _agencyAddress = user[_IC].AgencyAddress;\r\n        _AgencyName = ListAgency[_agencyAddress].AgencyName;\r\n        _Name = user[_IC].name;\r\n\r\n\r\n    }\r\n\r\n    function getFund(uint _IC, uint index) public view returns(\r\n      address sender, \r\n      string AgencyName,\r\n      uint value,\r\n      string date\r\n    ){\r\n        sender = UserFund[_IC][index].sender;\r\n        AgencyName = UserFund[_IC][index].Agency;\r\n        value = UserFund[_IC][index].value;\r\n        date = UserFund[_IC][index].date;\r\n    }\r\n\r\n    function verify(uint _IC) public view returns (bool _verify){\r\n        if(user[_IC].IC != 0){\r\n            return true;\r\n        }else {\r\n            return false;\r\n        }\r\n    }\r\n\r\n    //Only Agency can setFund, which is the fund from the agency itself\r\n    //Only Agency can setFund, which is the fund from the agency itself\r\n    function transFund(\r\n        uint _IC,\r\n        address _sender,\r\n        uint _value,\r\n        string _date\r\n        ) isAgency(msg.sender) isUserExist(_IC)  public {\r\n\r\n        //check the sender and the one that call the function is the same person\r\n        require(msg.sender == _sender);\r\n\r\n        uint count = user[_IC].countFundReceived;\r\n\r\n        UserFund[_IC][count].sender = msg.sender;\r\n        UserFund[_IC][count].Agency = ListAgency[msg.sender].AgencyName;\r\n        UserFund[_IC][count].value = _value;\r\n        UserFund[_IC][count].date = _date;\r\n\r\n        user[_IC].countFundReceived++;\r\n\r\n        emit transferFundEvent(_IC, msg.sender, _value, _date);\r\n\r\n    }\r\n\r\n    // function getListAgency() public;\r\n    // function getAllUserDetail() public;\r\n\r\n\r\n    //Verify the the one that call the function is the owner\r\n    modifier isOwner(){\r\n        require(msg.sender == owner);\r\n        _;\r\n    }\r\n\r\n    //Verify the the one that call the\r\n    //function is one of the agency\r\n    modifier isAgency(address agency_address){\r\n        require(ListAgency[agency_address].Agency_address == msg.sender);\r\n        _;\r\n    }\r\n\r\n    //To make sure the user is exist\r\n    modifier isUserExist(uint _IC){\r\n        require(user[_IC].IC != 0);\r\n        _;\r\n    }\r\n\r\n    modifier isUserNotExist(uint _IC){\r\n        require(user[_IC].IC != _IC );\r\n        _;\r\n    }\r\n\r\n\r\n\r\n}\r\n",
  "sourcePath": "C:\\Users\\SAM\\OneDrive\\FSKTM\\UniMaker\\MYBANTUAN\\contracts\\SmartZakat.sol",
  "compiler": {
    "name": "solc",
    "version": "0.4.24+commit.e67f0147.Emscripten.clang"
  },
  "schemaVersion": "2.0.1",
  "updatedAt": "2018-10-26T16:34:22.464Z"
}